{"@erc725/smart-contracts/contracts/ERC725Y.sol":{"ERC725Y":{"abi":[{"inputs":[{"internalType":"address","name":"initialOwner","type":"address"}],"stateMutability":"payable","type":"constructor"},{"inputs":[],"name":"ERC725Y_DataKeysValuesEmptyArray","type":"error"},{"inputs":[],"name":"ERC725Y_DataKeysValuesLengthMismatch","type":"error"},{"inputs":[],"name":"ERC725Y_MsgValueDisallowed","type":"error"},{"inputs":[{"internalType":"address","name":"callerAddress","type":"address"}],"name":"OwnableCallerNotTheOwner","type":"error"},{"inputs":[],"name":"OwnableCannotSetZeroAddressAsOwner","type":"error"},{"anonymous":false,"inputs":[{"indexed":true,"internalType":"bytes32","name":"dataKey","type":"bytes32"},{"indexed":false,"internalType":"bytes","name":"dataValue","type":"bytes"}],"name":"DataChanged","type":"event"},{"anonymous":false,"inputs":[{"indexed":true,"internalType":"address","name":"previousOwner","type":"address"},{"indexed":true,"internalType":"address","name":"newOwner","type":"address"}],"name":"OwnershipTransferred","type":"event"},{"inputs":[{"internalType":"bytes32","name":"dataKey","type":"bytes32"}],"name":"getData","outputs":[{"internalType":"bytes","name":"dataValue","type":"bytes"}],"stateMutability":"view","type":"function"},{"inputs":[{"internalType":"bytes32[]","name":"dataKeys","type":"bytes32[]"}],"name":"getDataBatch","outputs":[{"internalType":"bytes[]","name":"dataValues","type":"bytes[]"}],"stateMutability":"view","type":"function"},{"inputs":[],"name":"owner","outputs":[{"internalType":"address","name":"","type":"address"}],"stateMutability":"view","type":"function"},{"inputs":[],"name":"renounceOwnership","outputs":[],"stateMutability":"nonpayable","type":"function"},{"inputs":[{"internalType":"bytes32","name":"dataKey","type":"bytes32"},{"internalType":"bytes","name":"dataValue","type":"bytes"}],"name":"setData","outputs":[],"stateMutability":"payable","type":"function"},{"inputs":[{"internalType":"bytes32[]","name":"dataKeys","type":"bytes32[]"},{"internalType":"bytes[]","name":"dataValues","type":"bytes[]"}],"name":"setDataBatch","outputs":[],"stateMutability":"payable","type":"function"},{"inputs":[{"internalType":"bytes4","name":"interfaceId","type":"bytes4"}],"name":"supportsInterface","outputs":[{"internalType":"bool","name":"","type":"bool"}],"stateMutability":"view","type":"function"},{"inputs":[{"internalType":"address","name":"newOwner","type":"address"}],"name":"transferOwnership","outputs":[],"stateMutability":"nonpayable","type":"function"}],"evm":{"bytecode":{"linkReferences":{},"object":"6080604052604051620013b5380380620013b5833981810160405281019062000029919062000242565b600073ffffffffffffffffffffffffffffffffffffffff168173ffffffffffffffffffffffffffffffffffffffff16141562000091576040517f1ad8836c00000000000000000000000000000000000000000000000000000000815260040160405180910390fd5b620000a781620000ae60201b620005191760201c565b5062000274565b620000be620001af60201b60201c565b73ffffffffffffffffffffffffffffffffffffffff168173ffffffffffffffffffffffffffffffffffffffff1614620001ac578073ffffffffffffffffffffffffffffffffffffffff1660008054906101000a900473ffffffffffffffffffffffffffffffffffffffff1673ffffffffffffffffffffffffffffffffffffffff167f8be0079c531659141344cd1fd0a4f28419497f9722a3daafe3b4186f6b6457e060405160405180910390a3806000806101000a81548173ffffffffffffffffffffffffffffffffffffffff021916908373ffffffffffffffffffffffffffffffffffffffff1602179055505b50565b60008060009054906101000a900473ffffffffffffffffffffffffffffffffffffffff16905090565b600080fd5b600073ffffffffffffffffffffffffffffffffffffffff82169050919050565b60006200020a82620001dd565b9050919050565b6200021c81620001fd565b81146200022857600080fd5b50565b6000815190506200023c8162000211565b92915050565b6000602082840312156200025b576200025a620001d8565b5b60006200026b848285016200022b565b91505092915050565b61113180620002846000396000f3fe60806040526004361061007b5760003560e01c80638da5cb5b1161004e5780638da5cb5b1461012d5780639790242114610158578063dedff9c614610174578063f2fde38b146101b15761007b565b806301ffc9a71461008057806354f6127f146100bd578063715018a6146100fa5780637f23690c14610111575b600080fd5b34801561008c57600080fd5b506100a760048036038101906100a2919061090c565b6101da565b6040516100b49190610954565b60405180910390f35b3480156100c957600080fd5b506100e460048036038101906100df91906109a5565b61023b565b6040516100f19190610a6b565b60405180910390f35b34801561010657600080fd5b5061010f61024d565b005b61012b60048036038101906101269190610bc2565b610261565b005b34801561013957600080fd5b506101426102b1565b60405161014f9190610c5f565b60405180910390f35b610172600480360381019061016d9190610e23565b6102da565b005b34801561018057600080fd5b5061019b60048036038101906101969190610e9b565b6103ed565b6040516101a89190610ff0565b60405180910390f35b3480156101bd57600080fd5b506101d860048036038101906101d3919061103e565b61049e565b005b600063629aa69460e01b7bffffffffffffffffffffffffffffffffffffffffffffffffffffffff1916827bffffffffffffffffffffffffffffffffffffffffffffffffffffffff19161480610234575061023382610611565b5b9050919050565b60606102468261067b565b9050919050565b610255610720565b61025f6000610519565b565b610269610720565b600034146102a3576040517ff36ba73700000000000000000000000000000000000000000000000000000000815260040160405180910390fd5b6102ad8282610799565b5050565b60008060009054906101000a900473ffffffffffffffffffffffffffffffffffffffff16905090565b6102e2610720565b6000341461031c576040517ff36ba73700000000000000000000000000000000000000000000000000000000815260040160405180910390fd5b8051825114610357576040517f3bcc897900000000000000000000000000000000000000000000000000000000815260040160405180910390fd5b600082511415610393576040517f97da5f9500000000000000000000000000000000000000000000000000000000815260040160405180910390fd5b60005b82518110156103e8576103dd8382815181106103b5576103b461106b565b5b60200260200101518383815181106103d0576103cf61106b565b5b6020026020010151610799565b806001019050610396565b505050565b6060815167ffffffffffffffff81111561040a57610409610a97565b5b60405190808252806020026020018201604052801561043d57816020015b60608152602001906001900390816104285790505b50905060005b82518110156104985761046f8382815181106104625761046161106b565b5b602002602001015161067b565b8282815181106104825761048161106b565b5b6020026020010181905250806001019050610443565b50919050565b6104a6610720565b600073ffffffffffffffffffffffffffffffffffffffff168173ffffffffffffffffffffffffffffffffffffffff16141561050d576040517f1ad8836c00000000000000000000000000000000000000000000000000000000815260040160405180910390fd5b61051681610519565b50565b6105216102b1565b73ffffffffffffffffffffffffffffffffffffffff168173ffffffffffffffffffffffffffffffffffffffff161461060e578073ffffffffffffffffffffffffffffffffffffffff1660008054906101000a900473ffffffffffffffffffffffffffffffffffffffff1673ffffffffffffffffffffffffffffffffffffffff167f8be0079c531659141344cd1fd0a4f28419497f9722a3daafe3b4186f6b6457e060405160405180910390a3806000806101000a81548173ffffffffffffffffffffffffffffffffffffffff021916908373ffffffffffffffffffffffffffffffffffffffff1602179055505b50565b60007f01ffc9a7000000000000000000000000000000000000000000000000000000007bffffffffffffffffffffffffffffffffffffffffffffffffffffffff1916827bffffffffffffffffffffffffffffffffffffffffffffffffffffffff1916149050919050565b606060016000838152602001908152602001600020805461069b906110c9565b80601f01602080910402602001604051908101604052809291908181526020018280546106c7906110c9565b80156107145780601f106106e957610100808354040283529160200191610714565b820191906000526020600020905b8154815290600101906020018083116106f757829003601f168201915b50505050509050919050565b3373ffffffffffffffffffffffffffffffffffffffff1661073f6102b1565b73ffffffffffffffffffffffffffffffffffffffff161461079757336040517fbf1169c500000000000000000000000000000000000000000000000000000000815260040161078e9190610c5f565b60405180910390fd5b565b806001600084815260200190815260200160002090805190602001906107c09291906107fd565b50817fece574603820d07bc9b91f2a932baadf4628aabcb8afba49776529c14a6104b2826040516107f19190610a6b565b60405180910390a25050565b828054610809906110c9565b90600052602060002090601f01602090048101928261082b5760008555610872565b82601f1061084457805160ff1916838001178555610872565b82800160010185558215610872579182015b82811115610871578251825591602001919060010190610856565b5b50905061087f9190610883565b5090565b5b8082111561089c576000816000905550600101610884565b5090565b6000604051905090565b600080fd5b600080fd5b60007fffffffff0000000000000000000000000000000000000000000000000000000082169050919050565b6108e9816108b4565b81146108f457600080fd5b50565b600081359050610906816108e0565b92915050565b600060208284031215610922576109216108aa565b5b6000610930848285016108f7565b91505092915050565b60008115159050919050565b61094e81610939565b82525050565b60006020820190506109696000830184610945565b92915050565b6000819050919050565b6109828161096f565b811461098d57600080fd5b50565b60008135905061099f81610979565b92915050565b6000602082840312156109bb576109ba6108aa565b5b60006109c984828501610990565b91505092915050565b600081519050919050565b600082825260208201905092915050565b60005b83811015610a0c5780820151818401526020810190506109f1565b83811115610a1b576000848401525b50505050565b6000601f19601f8301169050919050565b6000610a3d826109d2565b610a4781856109dd565b9350610a578185602086016109ee565b610a6081610a21565b840191505092915050565b60006020820190508181036000830152610a858184610a32565b905092915050565b600080fd5b600080fd5b7f4e487b7100000000000000000000000000000000000000000000000000000000600052604160045260246000fd5b610acf82610a21565b810181811067ffffffffffffffff82111715610aee57610aed610a97565b5b80604052505050565b6000610b016108a0565b9050610b0d8282610ac6565b919050565b600067ffffffffffffffff821115610b2d57610b2c610a97565b5b610b3682610a21565b9050602081019050919050565b82818337600083830152505050565b6000610b65610b6084610b12565b610af7565b905082815260208101848484011115610b8157610b80610a92565b5b610b8c848285610b43565b509392505050565b600082601f830112610ba957610ba8610a8d565b5b8135610bb9848260208601610b52565b91505092915050565b60008060408385031215610bd957610bd86108aa565b5b6000610be785828601610990565b925050602083013567ffffffffffffffff811115610c0857610c076108af565b5b610c1485828601610b94565b9150509250929050565b600073ffffffffffffffffffffffffffffffffffffffff82169050919050565b6000610c4982610c1e565b9050919050565b610c5981610c3e565b82525050565b6000602082019050610c746000830184610c50565b92915050565b600067ffffffffffffffff821115610c9557610c94610a97565b5b602082029050602081019050919050565b600080fd5b6000610cbe610cb984610c7a565b610af7565b90508083825260208201905060208402830185811115610ce157610ce0610ca6565b5b835b81811015610d0a5780610cf68882610990565b845260208401935050602081019050610ce3565b5050509392505050565b600082601f830112610d2957610d28610a8d565b5b8135610d39848260208601610cab565b91505092915050565b600067ffffffffffffffff821115610d5d57610d5c610a97565b5b602082029050602081019050919050565b6000610d81610d7c84610d42565b610af7565b90508083825260208201905060208402830185811115610da457610da3610ca6565b5b835b81811015610deb57803567ffffffffffffffff811115610dc957610dc8610a8d565b5b808601610dd68982610b94565b85526020850194505050602081019050610da6565b5050509392505050565b600082601f830112610e0a57610e09610a8d565b5b8135610e1a848260208601610d6e565b91505092915050565b60008060408385031215610e3a57610e396108aa565b5b600083013567ffffffffffffffff811115610e5857610e576108af565b5b610e6485828601610d14565b925050602083013567ffffffffffffffff811115610e8557610e846108af565b5b610e9185828601610df5565b9150509250929050565b600060208284031215610eb157610eb06108aa565b5b600082013567ffffffffffffffff811115610ecf57610ece6108af565b5b610edb84828501610d14565b91505092915050565b600081519050919050565b600082825260208201905092915050565b6000819050602082019050919050565b600082825260208201905092915050565b6000610f2c826109d2565b610f368185610f10565b9350610f468185602086016109ee565b610f4f81610a21565b840191505092915050565b6000610f668383610f21565b905092915050565b6000602082019050919050565b6000610f8682610ee4565b610f908185610eef565b935083602082028501610fa285610f00565b8060005b85811015610fde5784840389528151610fbf8582610f5a565b9450610fca83610f6e565b925060208a01995050600181019050610fa6565b50829750879550505050505092915050565b6000602082019050818103600083015261100a8184610f7b565b905092915050565b61101b81610c3e565b811461102657600080fd5b50565b60008135905061103881611012565b92915050565b600060208284031215611054576110536108aa565b5b600061106284828501611029565b91505092915050565b7f4e487b7100000000000000000000000000000000000000000000000000000000600052603260045260246000fd5b7f4e487b7100000000000000000000000000000000000000000000000000000000600052602260045260246000fd5b600060028204905060018216806110e157607f821691505b602082108114156110f5576110f461109a565b5b5091905056fea26469706673582212209f324f7be711ce5199f4f8d2498457982296fe956d4db39f2262bd1f7ad97f0064736f6c634300080c0033","opcodes":"PUSH1 0x80 PUSH1 0x40 MSTORE PUSH1 0x40 MLOAD PUSH3 0x13B5 CODESIZE SUB DUP1 PUSH3 0x13B5 DUP4 CODECOPY DUP2 DUP2 ADD PUSH1 0x40 MSTORE DUP2 ADD SWAP1 PUSH3 0x29 SWAP2 SWAP1 PUSH3 0x242 JUMP JUMPDEST PUSH1 0x0 PUSH20 0xFFFFFFFFFFFFFFFFFFFFFFFFFFFFFFFFFFFFFFFF AND DUP2 PUSH20 0xFFFFFFFFFFFFFFFFFFFFFFFFFFFFFFFFFFFFFFFF AND EQ ISZERO PUSH3 0x91 JUMPI PUSH1 0x40 MLOAD PUSH32 0x1AD8836C00000000000000000000000000000000000000000000000000000000 DUP2 MSTORE PUSH1 0x4 ADD PUSH1 0x40 MLOAD DUP1 SWAP2 SUB SWAP1 REVERT JUMPDEST PUSH3 0xA7 DUP2 PUSH3 0xAE PUSH1 0x20 SHL PUSH3 0x519 OR PUSH1 0x20 SHR JUMP JUMPDEST POP PUSH3 0x274 JUMP JUMPDEST PUSH3 0xBE PUSH3 0x1AF PUSH1 0x20 SHL PUSH1 0x20 SHR JUMP JUMPDEST PUSH20 0xFFFFFFFFFFFFFFFFFFFFFFFFFFFFFFFFFFFFFFFF AND DUP2 PUSH20 0xFFFFFFFFFFFFFFFFFFFFFFFFFFFFFFFFFFFFFFFF AND EQ PUSH3 0x1AC JUMPI DUP1 PUSH20 0xFFFFFFFFFFFFFFFFFFFFFFFFFFFFFFFFFFFFFFFF AND PUSH1 0x0 DUP1 SLOAD SWAP1 PUSH2 0x100 EXP SWAP1 DIV PUSH20 0xFFFFFFFFFFFFFFFFFFFFFFFFFFFFFFFFFFFFFFFF AND PUSH20 0xFFFFFFFFFFFFFFFFFFFFFFFFFFFFFFFFFFFFFFFF AND PUSH32 0x8BE0079C531659141344CD1FD0A4F28419497F9722A3DAAFE3B4186F6B6457E0 PUSH1 0x40 MLOAD PUSH1 0x40 MLOAD DUP1 SWAP2 SUB SWAP1 LOG3 DUP1 PUSH1 0x0 DUP1 PUSH2 0x100 EXP DUP2 SLOAD DUP2 PUSH20 0xFFFFFFFFFFFFFFFFFFFFFFFFFFFFFFFFFFFFFFFF MUL NOT AND SWAP1 DUP4 PUSH20 0xFFFFFFFFFFFFFFFFFFFFFFFFFFFFFFFFFFFFFFFF AND MUL OR SWAP1 SSTORE POP JUMPDEST POP JUMP JUMPDEST PUSH1 0x0 DUP1 PUSH1 0x0 SWAP1 SLOAD SWAP1 PUSH2 0x100 EXP SWAP1 DIV PUSH20 0xFFFFFFFFFFFFFFFFFFFFFFFFFFFFFFFFFFFFFFFF AND SWAP1 POP SWAP1 JUMP JUMPDEST PUSH1 0x0 DUP1 REVERT JUMPDEST PUSH1 0x0 PUSH20 0xFFFFFFFFFFFFFFFFFFFFFFFFFFFFFFFFFFFFFFFF DUP3 AND SWAP1 POP SWAP2 SWAP1 POP JUMP JUMPDEST PUSH1 0x0 PUSH3 0x20A DUP3 PUSH3 0x1DD JUMP JUMPDEST SWAP1 POP SWAP2 SWAP1 POP JUMP JUMPDEST PUSH3 0x21C DUP2 PUSH3 0x1FD JUMP JUMPDEST DUP2 EQ PUSH3 0x228 JUMPI PUSH1 0x0 DUP1 REVERT JUMPDEST POP JUMP JUMPDEST PUSH1 0x0 DUP2 MLOAD SWAP1 POP PUSH3 0x23C DUP2 PUSH3 0x211 JUMP JUMPDEST SWAP3 SWAP2 POP POP JUMP JUMPDEST PUSH1 0x0 PUSH1 0x20 DUP3 DUP5 SUB SLT ISZERO PUSH3 0x25B JUMPI PUSH3 0x25A PUSH3 0x1D8 JUMP JUMPDEST JUMPDEST PUSH1 0x0 PUSH3 0x26B DUP5 DUP3 DUP6 ADD PUSH3 0x22B JUMP JUMPDEST SWAP2 POP POP SWAP3 SWAP2 POP POP JUMP JUMPDEST PUSH2 0x1131 DUP1 PUSH3 0x284 PUSH1 0x0 CODECOPY PUSH1 0x0 RETURN INVALID PUSH1 0x80 PUSH1 0x40 MSTORE PUSH1 0x4 CALLDATASIZE LT PUSH2 0x7B JUMPI PUSH1 0x0 CALLDATALOAD PUSH1 0xE0 SHR DUP1 PUSH4 0x8DA5CB5B GT PUSH2 0x4E JUMPI DUP1 PUSH4 0x8DA5CB5B EQ PUSH2 0x12D JUMPI DUP1 PUSH4 0x97902421 EQ PUSH2 0x158 JUMPI DUP1 PUSH4 0xDEDFF9C6 EQ PUSH2 0x174 JUMPI DUP1 PUSH4 0xF2FDE38B EQ PUSH2 0x1B1 JUMPI PUSH2 0x7B JUMP JUMPDEST DUP1 PUSH4 0x1FFC9A7 EQ PUSH2 0x80 JUMPI DUP1 PUSH4 0x54F6127F EQ PUSH2 0xBD JUMPI DUP1 PUSH4 0x715018A6 EQ PUSH2 0xFA JUMPI DUP1 PUSH4 0x7F23690C EQ PUSH2 0x111 JUMPI JUMPDEST PUSH1 0x0 DUP1 REVERT JUMPDEST CALLVALUE DUP1 ISZERO PUSH2 0x8C JUMPI PUSH1 0x0 DUP1 REVERT JUMPDEST POP PUSH2 0xA7 PUSH1 0x4 DUP1 CALLDATASIZE SUB DUP2 ADD SWAP1 PUSH2 0xA2 SWAP2 SWAP1 PUSH2 0x90C JUMP JUMPDEST PUSH2 0x1DA JUMP JUMPDEST PUSH1 0x40 MLOAD PUSH2 0xB4 SWAP2 SWAP1 PUSH2 0x954 JUMP JUMPDEST PUSH1 0x40 MLOAD DUP1 SWAP2 SUB SWAP1 RETURN JUMPDEST CALLVALUE DUP1 ISZERO PUSH2 0xC9 JUMPI PUSH1 0x0 DUP1 REVERT JUMPDEST POP PUSH2 0xE4 PUSH1 0x4 DUP1 CALLDATASIZE SUB DUP2 ADD SWAP1 PUSH2 0xDF SWAP2 SWAP1 PUSH2 0x9A5 JUMP JUMPDEST PUSH2 0x23B JUMP JUMPDEST PUSH1 0x40 MLOAD PUSH2 0xF1 SWAP2 SWAP1 PUSH2 0xA6B JUMP JUMPDEST PUSH1 0x40 MLOAD DUP1 SWAP2 SUB SWAP1 RETURN JUMPDEST CALLVALUE DUP1 ISZERO PUSH2 0x106 JUMPI PUSH1 0x0 DUP1 REVERT JUMPDEST POP PUSH2 0x10F PUSH2 0x24D JUMP JUMPDEST STOP JUMPDEST PUSH2 0x12B PUSH1 0x4 DUP1 CALLDATASIZE SUB DUP2 ADD SWAP1 PUSH2 0x126 SWAP2 SWAP1 PUSH2 0xBC2 JUMP JUMPDEST PUSH2 0x261 JUMP JUMPDEST STOP JUMPDEST CALLVALUE DUP1 ISZERO PUSH2 0x139 JUMPI PUSH1 0x0 DUP1 REVERT JUMPDEST POP PUSH2 0x142 PUSH2 0x2B1 JUMP JUMPDEST PUSH1 0x40 MLOAD PUSH2 0x14F SWAP2 SWAP1 PUSH2 0xC5F JUMP JUMPDEST PUSH1 0x40 MLOAD DUP1 SWAP2 SUB SWAP1 RETURN JUMPDEST PUSH2 0x172 PUSH1 0x4 DUP1 CALLDATASIZE SUB DUP2 ADD SWAP1 PUSH2 0x16D SWAP2 SWAP1 PUSH2 0xE23 JUMP JUMPDEST PUSH2 0x2DA JUMP JUMPDEST STOP JUMPDEST CALLVALUE DUP1 ISZERO PUSH2 0x180 JUMPI PUSH1 0x0 DUP1 REVERT JUMPDEST POP PUSH2 0x19B PUSH1 0x4 DUP1 CALLDATASIZE SUB DUP2 ADD SWAP1 PUSH2 0x196 SWAP2 SWAP1 PUSH2 0xE9B JUMP JUMPDEST PUSH2 0x3ED JUMP JUMPDEST PUSH1 0x40 MLOAD PUSH2 0x1A8 SWAP2 SWAP1 PUSH2 0xFF0 JUMP JUMPDEST PUSH1 0x40 MLOAD DUP1 SWAP2 SUB SWAP1 RETURN JUMPDEST CALLVALUE DUP1 ISZERO PUSH2 0x1BD JUMPI PUSH1 0x0 DUP1 REVERT JUMPDEST POP PUSH2 0x1D8 PUSH1 0x4 DUP1 CALLDATASIZE SUB DUP2 ADD SWAP1 PUSH2 0x1D3 SWAP2 SWAP1 PUSH2 0x103E JUMP JUMPDEST PUSH2 0x49E JUMP JUMPDEST STOP JUMPDEST PUSH1 0x0 PUSH4 0x629AA694 PUSH1 0xE0 SHL PUSH28 0xFFFFFFFFFFFFFFFFFFFFFFFFFFFFFFFFFFFFFFFFFFFFFFFFFFFFFFFF NOT AND DUP3 PUSH28 0xFFFFFFFFFFFFFFFFFFFFFFFFFFFFFFFFFFFFFFFFFFFFFFFFFFFFFFFF NOT AND EQ DUP1 PUSH2 0x234 JUMPI POP PUSH2 0x233 DUP3 PUSH2 0x611 JUMP JUMPDEST JUMPDEST SWAP1 POP SWAP2 SWAP1 POP JUMP JUMPDEST PUSH1 0x60 PUSH2 0x246 DUP3 PUSH2 0x67B JUMP JUMPDEST SWAP1 POP SWAP2 SWAP1 POP JUMP JUMPDEST PUSH2 0x255 PUSH2 0x720 JUMP JUMPDEST PUSH2 0x25F PUSH1 0x0 PUSH2 0x519 JUMP JUMPDEST JUMP JUMPDEST PUSH2 0x269 PUSH2 0x720 JUMP JUMPDEST PUSH1 0x0 CALLVALUE EQ PUSH2 0x2A3 JUMPI PUSH1 0x40 MLOAD PUSH32 0xF36BA73700000000000000000000000000000000000000000000000000000000 DUP2 MSTORE PUSH1 0x4 ADD PUSH1 0x40 MLOAD DUP1 SWAP2 SUB SWAP1 REVERT JUMPDEST PUSH2 0x2AD DUP3 DUP3 PUSH2 0x799 JUMP JUMPDEST POP POP JUMP JUMPDEST PUSH1 0x0 DUP1 PUSH1 0x0 SWAP1 SLOAD SWAP1 PUSH2 0x100 EXP SWAP1 DIV PUSH20 0xFFFFFFFFFFFFFFFFFFFFFFFFFFFFFFFFFFFFFFFF AND SWAP1 POP SWAP1 JUMP JUMPDEST PUSH2 0x2E2 PUSH2 0x720 JUMP JUMPDEST PUSH1 0x0 CALLVALUE EQ PUSH2 0x31C JUMPI PUSH1 0x40 MLOAD PUSH32 0xF36BA73700000000000000000000000000000000000000000000000000000000 DUP2 MSTORE PUSH1 0x4 ADD PUSH1 0x40 MLOAD DUP1 SWAP2 SUB SWAP1 REVERT JUMPDEST DUP1 MLOAD DUP3 MLOAD EQ PUSH2 0x357 JUMPI PUSH1 0x40 MLOAD PUSH32 0x3BCC897900000000000000000000000000000000000000000000000000000000 DUP2 MSTORE PUSH1 0x4 ADD PUSH1 0x40 MLOAD DUP1 SWAP2 SUB SWAP1 REVERT JUMPDEST PUSH1 0x0 DUP3 MLOAD EQ ISZERO PUSH2 0x393 JUMPI PUSH1 0x40 MLOAD PUSH32 0x97DA5F9500000000000000000000000000000000000000000000000000000000 DUP2 MSTORE PUSH1 0x4 ADD PUSH1 0x40 MLOAD DUP1 SWAP2 SUB SWAP1 REVERT JUMPDEST PUSH1 0x0 JUMPDEST DUP3 MLOAD DUP2 LT ISZERO PUSH2 0x3E8 JUMPI PUSH2 0x3DD DUP4 DUP3 DUP2 MLOAD DUP2 LT PUSH2 0x3B5 JUMPI PUSH2 0x3B4 PUSH2 0x106B JUMP JUMPDEST JUMPDEST PUSH1 0x20 MUL PUSH1 0x20 ADD ADD MLOAD DUP4 DUP4 DUP2 MLOAD DUP2 LT PUSH2 0x3D0 JUMPI PUSH2 0x3CF PUSH2 0x106B JUMP JUMPDEST JUMPDEST PUSH1 0x20 MUL PUSH1 0x20 ADD ADD MLOAD PUSH2 0x799 JUMP JUMPDEST DUP1 PUSH1 0x1 ADD SWAP1 POP PUSH2 0x396 JUMP JUMPDEST POP POP POP JUMP JUMPDEST PUSH1 0x60 DUP2 MLOAD PUSH8 0xFFFFFFFFFFFFFFFF DUP2 GT ISZERO PUSH2 0x40A JUMPI PUSH2 0x409 PUSH2 0xA97 JUMP JUMPDEST JUMPDEST PUSH1 0x40 MLOAD SWAP1 DUP1 DUP3 MSTORE DUP1 PUSH1 0x20 MUL PUSH1 0x20 ADD DUP3 ADD PUSH1 0x40 MSTORE DUP1 ISZERO PUSH2 0x43D JUMPI DUP2 PUSH1 0x20 ADD JUMPDEST PUSH1 0x60 DUP2 MSTORE PUSH1 0x20 ADD SWAP1 PUSH1 0x1 SWAP1 SUB SWAP1 DUP2 PUSH2 0x428 JUMPI SWAP1 POP JUMPDEST POP SWAP1 POP PUSH1 0x0 JUMPDEST DUP3 MLOAD DUP2 LT ISZERO PUSH2 0x498 JUMPI PUSH2 0x46F DUP4 DUP3 DUP2 MLOAD DUP2 LT PUSH2 0x462 JUMPI PUSH2 0x461 PUSH2 0x106B JUMP JUMPDEST JUMPDEST PUSH1 0x20 MUL PUSH1 0x20 ADD ADD MLOAD PUSH2 0x67B JUMP JUMPDEST DUP3 DUP3 DUP2 MLOAD DUP2 LT PUSH2 0x482 JUMPI PUSH2 0x481 PUSH2 0x106B JUMP JUMPDEST JUMPDEST PUSH1 0x20 MUL PUSH1 0x20 ADD ADD DUP2 SWAP1 MSTORE POP DUP1 PUSH1 0x1 ADD SWAP1 POP PUSH2 0x443 JUMP JUMPDEST POP SWAP2 SWAP1 POP JUMP JUMPDEST PUSH2 0x4A6 PUSH2 0x720 JUMP JUMPDEST PUSH1 0x0 PUSH20 0xFFFFFFFFFFFFFFFFFFFFFFFFFFFFFFFFFFFFFFFF AND DUP2 PUSH20 0xFFFFFFFFFFFFFFFFFFFFFFFFFFFFFFFFFFFFFFFF AND EQ ISZERO PUSH2 0x50D JUMPI PUSH1 0x40 MLOAD PUSH32 0x1AD8836C00000000000000000000000000000000000000000000000000000000 DUP2 MSTORE PUSH1 0x4 ADD PUSH1 0x40 MLOAD DUP1 SWAP2 SUB SWAP1 REVERT JUMPDEST PUSH2 0x516 DUP2 PUSH2 0x519 JUMP JUMPDEST POP JUMP JUMPDEST PUSH2 0x521 PUSH2 0x2B1 JUMP JUMPDEST PUSH20 0xFFFFFFFFFFFFFFFFFFFFFFFFFFFFFFFFFFFFFFFF AND DUP2 PUSH20 0xFFFFFFFFFFFFFFFFFFFFFFFFFFFFFFFFFFFFFFFF AND EQ PUSH2 0x60E JUMPI DUP1 PUSH20 0xFFFFFFFFFFFFFFFFFFFFFFFFFFFFFFFFFFFFFFFF AND PUSH1 0x0 DUP1 SLOAD SWAP1 PUSH2 0x100 EXP SWAP1 DIV PUSH20 0xFFFFFFFFFFFFFFFFFFFFFFFFFFFFFFFFFFFFFFFF AND PUSH20 0xFFFFFFFFFFFFFFFFFFFFFFFFFFFFFFFFFFFFFFFF AND PUSH32 0x8BE0079C531659141344CD1FD0A4F28419497F9722A3DAAFE3B4186F6B6457E0 PUSH1 0x40 MLOAD PUSH1 0x40 MLOAD DUP1 SWAP2 SUB SWAP1 LOG3 DUP1 PUSH1 0x0 DUP1 PUSH2 0x100 EXP DUP2 SLOAD DUP2 PUSH20 0xFFFFFFFFFFFFFFFFFFFFFFFFFFFFFFFFFFFFFFFF MUL NOT AND SWAP1 DUP4 PUSH20 0xFFFFFFFFFFFFFFFFFFFFFFFFFFFFFFFFFFFFFFFF AND MUL OR SWAP1 SSTORE POP JUMPDEST POP JUMP JUMPDEST PUSH1 0x0 PUSH32 0x1FFC9A700000000000000000000000000000000000000000000000000000000 PUSH28 0xFFFFFFFFFFFFFFFFFFFFFFFFFFFFFFFFFFFFFFFFFFFFFFFFFFFFFFFF NOT AND DUP3 PUSH28 0xFFFFFFFFFFFFFFFFFFFFFFFFFFFFFFFFFFFFFFFFFFFFFFFFFFFFFFFF NOT AND EQ SWAP1 POP SWAP2 SWAP1 POP JUMP JUMPDEST PUSH1 0x60 PUSH1 0x1 PUSH1 0x0 DUP4 DUP2 MSTORE PUSH1 0x20 ADD SWAP1 DUP2 MSTORE PUSH1 0x20 ADD PUSH1 0x0 KECCAK256 DUP1 SLOAD PUSH2 0x69B SWAP1 PUSH2 0x10C9 JUMP JUMPDEST DUP1 PUSH1 0x1F ADD PUSH1 0x20 DUP1 SWAP2 DIV MUL PUSH1 0x20 ADD PUSH1 0x40 MLOAD SWAP1 DUP2 ADD PUSH1 0x40 MSTORE DUP1 SWAP3 SWAP2 SWAP1 DUP2 DUP2 MSTORE PUSH1 0x20 ADD DUP3 DUP1 SLOAD PUSH2 0x6C7 SWAP1 PUSH2 0x10C9 JUMP JUMPDEST DUP1 ISZERO PUSH2 0x714 JUMPI DUP1 PUSH1 0x1F LT PUSH2 0x6E9 JUMPI PUSH2 0x100 DUP1 DUP4 SLOAD DIV MUL DUP4 MSTORE SWAP2 PUSH1 0x20 ADD SWAP2 PUSH2 0x714 JUMP JUMPDEST DUP3 ADD SWAP2 SWAP1 PUSH1 0x0 MSTORE PUSH1 0x20 PUSH1 0x0 KECCAK256 SWAP1 JUMPDEST DUP2 SLOAD DUP2 MSTORE SWAP1 PUSH1 0x1 ADD SWAP1 PUSH1 0x20 ADD DUP1 DUP4 GT PUSH2 0x6F7 JUMPI DUP3 SWAP1 SUB PUSH1 0x1F AND DUP3 ADD SWAP2 JUMPDEST POP POP POP POP POP SWAP1 POP SWAP2 SWAP1 POP JUMP JUMPDEST CALLER PUSH20 0xFFFFFFFFFFFFFFFFFFFFFFFFFFFFFFFFFFFFFFFF AND PUSH2 0x73F PUSH2 0x2B1 JUMP JUMPDEST PUSH20 0xFFFFFFFFFFFFFFFFFFFFFFFFFFFFFFFFFFFFFFFF AND EQ PUSH2 0x797 JUMPI CALLER PUSH1 0x40 MLOAD PUSH32 0xBF1169C500000000000000000000000000000000000000000000000000000000 DUP2 MSTORE PUSH1 0x4 ADD PUSH2 0x78E SWAP2 SWAP1 PUSH2 0xC5F JUMP JUMPDEST PUSH1 0x40 MLOAD DUP1 SWAP2 SUB SWAP1 REVERT JUMPDEST JUMP JUMPDEST DUP1 PUSH1 0x1 PUSH1 0x0 DUP5 DUP2 MSTORE PUSH1 0x20 ADD SWAP1 DUP2 MSTORE PUSH1 0x20 ADD PUSH1 0x0 KECCAK256 SWAP1 DUP1 MLOAD SWAP1 PUSH1 0x20 ADD SWAP1 PUSH2 0x7C0 SWAP3 SWAP2 SWAP1 PUSH2 0x7FD JUMP JUMPDEST POP DUP2 PUSH32 0xECE574603820D07BC9B91F2A932BAADF4628AABCB8AFBA49776529C14A6104B2 DUP3 PUSH1 0x40 MLOAD PUSH2 0x7F1 SWAP2 SWAP1 PUSH2 0xA6B JUMP JUMPDEST PUSH1 0x40 MLOAD DUP1 SWAP2 SUB SWAP1 LOG2 POP POP JUMP JUMPDEST DUP3 DUP1 SLOAD PUSH2 0x809 SWAP1 PUSH2 0x10C9 JUMP JUMPDEST SWAP1 PUSH1 0x0 MSTORE PUSH1 0x20 PUSH1 0x0 KECCAK256 SWAP1 PUSH1 0x1F ADD PUSH1 0x20 SWAP1 DIV DUP2 ADD SWAP3 DUP3 PUSH2 0x82B JUMPI PUSH1 0x0 DUP6 SSTORE PUSH2 0x872 JUMP JUMPDEST DUP3 PUSH1 0x1F LT PUSH2 0x844 JUMPI DUP1 MLOAD PUSH1 0xFF NOT AND DUP4 DUP1 ADD OR DUP6 SSTORE PUSH2 0x872 JUMP JUMPDEST DUP3 DUP1 ADD PUSH1 0x1 ADD DUP6 SSTORE DUP3 ISZERO PUSH2 0x872 JUMPI SWAP2 DUP3 ADD JUMPDEST DUP3 DUP2 GT ISZERO PUSH2 0x871 JUMPI DUP3 MLOAD DUP3 SSTORE SWAP2 PUSH1 0x20 ADD SWAP2 SWAP1 PUSH1 0x1 ADD SWAP1 PUSH2 0x856 JUMP JUMPDEST JUMPDEST POP SWAP1 POP PUSH2 0x87F SWAP2 SWAP1 PUSH2 0x883 JUMP JUMPDEST POP SWAP1 JUMP JUMPDEST JUMPDEST DUP1 DUP3 GT ISZERO PUSH2 0x89C JUMPI PUSH1 0x0 DUP2 PUSH1 0x0 SWAP1 SSTORE POP PUSH1 0x1 ADD PUSH2 0x884 JUMP JUMPDEST POP SWAP1 JUMP JUMPDEST PUSH1 0x0 PUSH1 0x40 MLOAD SWAP1 POP SWAP1 JUMP JUMPDEST PUSH1 0x0 DUP1 REVERT JUMPDEST PUSH1 0x0 DUP1 REVERT JUMPDEST PUSH1 0x0 PUSH32 0xFFFFFFFF00000000000000000000000000000000000000000000000000000000 DUP3 AND SWAP1 POP SWAP2 SWAP1 POP JUMP JUMPDEST PUSH2 0x8E9 DUP2 PUSH2 0x8B4 JUMP JUMPDEST DUP2 EQ PUSH2 0x8F4 JUMPI PUSH1 0x0 DUP1 REVERT JUMPDEST POP JUMP JUMPDEST PUSH1 0x0 DUP2 CALLDATALOAD SWAP1 POP PUSH2 0x906 DUP2 PUSH2 0x8E0 JUMP JUMPDEST SWAP3 SWAP2 POP POP JUMP JUMPDEST PUSH1 0x0 PUSH1 0x20 DUP3 DUP5 SUB SLT ISZERO PUSH2 0x922 JUMPI PUSH2 0x921 PUSH2 0x8AA JUMP JUMPDEST JUMPDEST PUSH1 0x0 PUSH2 0x930 DUP5 DUP3 DUP6 ADD PUSH2 0x8F7 JUMP JUMPDEST SWAP2 POP POP SWAP3 SWAP2 POP POP JUMP JUMPDEST PUSH1 0x0 DUP2 ISZERO ISZERO SWAP1 POP SWAP2 SWAP1 POP JUMP JUMPDEST PUSH2 0x94E DUP2 PUSH2 0x939 JUMP JUMPDEST DUP3 MSTORE POP POP JUMP JUMPDEST PUSH1 0x0 PUSH1 0x20 DUP3 ADD SWAP1 POP PUSH2 0x969 PUSH1 0x0 DUP4 ADD DUP5 PUSH2 0x945 JUMP JUMPDEST SWAP3 SWAP2 POP POP JUMP JUMPDEST PUSH1 0x0 DUP2 SWAP1 POP SWAP2 SWAP1 POP JUMP JUMPDEST PUSH2 0x982 DUP2 PUSH2 0x96F JUMP JUMPDEST DUP2 EQ PUSH2 0x98D JUMPI PUSH1 0x0 DUP1 REVERT JUMPDEST POP JUMP JUMPDEST PUSH1 0x0 DUP2 CALLDATALOAD SWAP1 POP PUSH2 0x99F DUP2 PUSH2 0x979 JUMP JUMPDEST SWAP3 SWAP2 POP POP JUMP JUMPDEST PUSH1 0x0 PUSH1 0x20 DUP3 DUP5 SUB SLT ISZERO PUSH2 0x9BB JUMPI PUSH2 0x9BA PUSH2 0x8AA JUMP JUMPDEST JUMPDEST PUSH1 0x0 PUSH2 0x9C9 DUP5 DUP3 DUP6 ADD PUSH2 0x990 JUMP JUMPDEST SWAP2 POP POP SWAP3 SWAP2 POP POP JUMP JUMPDEST PUSH1 0x0 DUP2 MLOAD SWAP1 POP SWAP2 SWAP1 POP JUMP JUMPDEST PUSH1 0x0 DUP3 DUP3 MSTORE PUSH1 0x20 DUP3 ADD SWAP1 POP SWAP3 SWAP2 POP POP JUMP JUMPDEST PUSH1 0x0 JUMPDEST DUP4 DUP2 LT ISZERO PUSH2 0xA0C JUMPI DUP1 DUP3 ADD MLOAD DUP2 DUP5 ADD MSTORE PUSH1 0x20 DUP2 ADD SWAP1 POP PUSH2 0x9F1 JUMP JUMPDEST DUP4 DUP2 GT ISZERO PUSH2 0xA1B JUMPI PUSH1 0x0 DUP5 DUP5 ADD MSTORE JUMPDEST POP POP POP POP JUMP JUMPDEST PUSH1 0x0 PUSH1 0x1F NOT PUSH1 0x1F DUP4 ADD AND SWAP1 POP SWAP2 SWAP1 POP JUMP JUMPDEST PUSH1 0x0 PUSH2 0xA3D DUP3 PUSH2 0x9D2 JUMP JUMPDEST PUSH2 0xA47 DUP2 DUP6 PUSH2 0x9DD JUMP JUMPDEST SWAP4 POP PUSH2 0xA57 DUP2 DUP6 PUSH1 0x20 DUP7 ADD PUSH2 0x9EE JUMP JUMPDEST PUSH2 0xA60 DUP2 PUSH2 0xA21 JUMP JUMPDEST DUP5 ADD SWAP2 POP POP SWAP3 SWAP2 POP POP JUMP JUMPDEST PUSH1 0x0 PUSH1 0x20 DUP3 ADD SWAP1 POP DUP2 DUP2 SUB PUSH1 0x0 DUP4 ADD MSTORE PUSH2 0xA85 DUP2 DUP5 PUSH2 0xA32 JUMP JUMPDEST SWAP1 POP SWAP3 SWAP2 POP POP JUMP JUMPDEST PUSH1 0x0 DUP1 REVERT JUMPDEST PUSH1 0x0 DUP1 REVERT JUMPDEST PUSH32 0x4E487B7100000000000000000000000000000000000000000000000000000000 PUSH1 0x0 MSTORE PUSH1 0x41 PUSH1 0x4 MSTORE PUSH1 0x24 PUSH1 0x0 REVERT JUMPDEST PUSH2 0xACF DUP3 PUSH2 0xA21 JUMP JUMPDEST DUP2 ADD DUP2 DUP2 LT PUSH8 0xFFFFFFFFFFFFFFFF DUP3 GT OR ISZERO PUSH2 0xAEE JUMPI PUSH2 0xAED PUSH2 0xA97 JUMP JUMPDEST JUMPDEST DUP1 PUSH1 0x40 MSTORE POP POP POP JUMP JUMPDEST PUSH1 0x0 PUSH2 0xB01 PUSH2 0x8A0 JUMP JUMPDEST SWAP1 POP PUSH2 0xB0D DUP3 DUP3 PUSH2 0xAC6 JUMP JUMPDEST SWAP2 SWAP1 POP JUMP JUMPDEST PUSH1 0x0 PUSH8 0xFFFFFFFFFFFFFFFF DUP3 GT ISZERO PUSH2 0xB2D JUMPI PUSH2 0xB2C PUSH2 0xA97 JUMP JUMPDEST JUMPDEST PUSH2 0xB36 DUP3 PUSH2 0xA21 JUMP JUMPDEST SWAP1 POP PUSH1 0x20 DUP2 ADD SWAP1 POP SWAP2 SWAP1 POP JUMP JUMPDEST DUP3 DUP2 DUP4 CALLDATACOPY PUSH1 0x0 DUP4 DUP4 ADD MSTORE POP POP POP JUMP JUMPDEST PUSH1 0x0 PUSH2 0xB65 PUSH2 0xB60 DUP5 PUSH2 0xB12 JUMP JUMPDEST PUSH2 0xAF7 JUMP JUMPDEST SWAP1 POP DUP3 DUP2 MSTORE PUSH1 0x20 DUP2 ADD DUP5 DUP5 DUP5 ADD GT ISZERO PUSH2 0xB81 JUMPI PUSH2 0xB80 PUSH2 0xA92 JUMP JUMPDEST JUMPDEST PUSH2 0xB8C DUP5 DUP3 DUP6 PUSH2 0xB43 JUMP JUMPDEST POP SWAP4 SWAP3 POP POP POP JUMP JUMPDEST PUSH1 0x0 DUP3 PUSH1 0x1F DUP4 ADD SLT PUSH2 0xBA9 JUMPI PUSH2 0xBA8 PUSH2 0xA8D JUMP JUMPDEST JUMPDEST DUP2 CALLDATALOAD PUSH2 0xBB9 DUP5 DUP3 PUSH1 0x20 DUP7 ADD PUSH2 0xB52 JUMP JUMPDEST SWAP2 POP POP SWAP3 SWAP2 POP POP JUMP JUMPDEST PUSH1 0x0 DUP1 PUSH1 0x40 DUP4 DUP6 SUB SLT ISZERO PUSH2 0xBD9 JUMPI PUSH2 0xBD8 PUSH2 0x8AA JUMP JUMPDEST JUMPDEST PUSH1 0x0 PUSH2 0xBE7 DUP6 DUP3 DUP7 ADD PUSH2 0x990 JUMP JUMPDEST SWAP3 POP POP PUSH1 0x20 DUP4 ADD CALLDATALOAD PUSH8 0xFFFFFFFFFFFFFFFF DUP2 GT ISZERO PUSH2 0xC08 JUMPI PUSH2 0xC07 PUSH2 0x8AF JUMP JUMPDEST JUMPDEST PUSH2 0xC14 DUP6 DUP3 DUP7 ADD PUSH2 0xB94 JUMP JUMPDEST SWAP2 POP POP SWAP3 POP SWAP3 SWAP1 POP JUMP JUMPDEST PUSH1 0x0 PUSH20 0xFFFFFFFFFFFFFFFFFFFFFFFFFFFFFFFFFFFFFFFF DUP3 AND SWAP1 POP SWAP2 SWAP1 POP JUMP JUMPDEST PUSH1 0x0 PUSH2 0xC49 DUP3 PUSH2 0xC1E JUMP JUMPDEST SWAP1 POP SWAP2 SWAP1 POP JUMP JUMPDEST PUSH2 0xC59 DUP2 PUSH2 0xC3E JUMP JUMPDEST DUP3 MSTORE POP POP JUMP JUMPDEST PUSH1 0x0 PUSH1 0x20 DUP3 ADD SWAP1 POP PUSH2 0xC74 PUSH1 0x0 DUP4 ADD DUP5 PUSH2 0xC50 JUMP JUMPDEST SWAP3 SWAP2 POP POP JUMP JUMPDEST PUSH1 0x0 PUSH8 0xFFFFFFFFFFFFFFFF DUP3 GT ISZERO PUSH2 0xC95 JUMPI PUSH2 0xC94 PUSH2 0xA97 JUMP JUMPDEST JUMPDEST PUSH1 0x20 DUP3 MUL SWAP1 POP PUSH1 0x20 DUP2 ADD SWAP1 POP SWAP2 SWAP1 POP JUMP JUMPDEST PUSH1 0x0 DUP1 REVERT JUMPDEST PUSH1 0x0 PUSH2 0xCBE PUSH2 0xCB9 DUP5 PUSH2 0xC7A JUMP JUMPDEST PUSH2 0xAF7 JUMP JUMPDEST SWAP1 POP DUP1 DUP4 DUP3 MSTORE PUSH1 0x20 DUP3 ADD SWAP1 POP PUSH1 0x20 DUP5 MUL DUP4 ADD DUP6 DUP2 GT ISZERO PUSH2 0xCE1 JUMPI PUSH2 0xCE0 PUSH2 0xCA6 JUMP JUMPDEST JUMPDEST DUP4 JUMPDEST DUP2 DUP2 LT ISZERO PUSH2 0xD0A JUMPI DUP1 PUSH2 0xCF6 DUP9 DUP3 PUSH2 0x990 JUMP JUMPDEST DUP5 MSTORE PUSH1 0x20 DUP5 ADD SWAP4 POP POP PUSH1 0x20 DUP2 ADD SWAP1 POP PUSH2 0xCE3 JUMP JUMPDEST POP POP POP SWAP4 SWAP3 POP POP POP JUMP JUMPDEST PUSH1 0x0 DUP3 PUSH1 0x1F DUP4 ADD SLT PUSH2 0xD29 JUMPI PUSH2 0xD28 PUSH2 0xA8D JUMP JUMPDEST JUMPDEST DUP2 CALLDATALOAD PUSH2 0xD39 DUP5 DUP3 PUSH1 0x20 DUP7 ADD PUSH2 0xCAB JUMP JUMPDEST SWAP2 POP POP SWAP3 SWAP2 POP POP JUMP JUMPDEST PUSH1 0x0 PUSH8 0xFFFFFFFFFFFFFFFF DUP3 GT ISZERO PUSH2 0xD5D JUMPI PUSH2 0xD5C PUSH2 0xA97 JUMP JUMPDEST JUMPDEST PUSH1 0x20 DUP3 MUL SWAP1 POP PUSH1 0x20 DUP2 ADD SWAP1 POP SWAP2 SWAP1 POP JUMP JUMPDEST PUSH1 0x0 PUSH2 0xD81 PUSH2 0xD7C DUP5 PUSH2 0xD42 JUMP JUMPDEST PUSH2 0xAF7 JUMP JUMPDEST SWAP1 POP DUP1 DUP4 DUP3 MSTORE PUSH1 0x20 DUP3 ADD SWAP1 POP PUSH1 0x20 DUP5 MUL DUP4 ADD DUP6 DUP2 GT ISZERO PUSH2 0xDA4 JUMPI PUSH2 0xDA3 PUSH2 0xCA6 JUMP JUMPDEST JUMPDEST DUP4 JUMPDEST DUP2 DUP2 LT ISZERO PUSH2 0xDEB JUMPI DUP1 CALLDATALOAD PUSH8 0xFFFFFFFFFFFFFFFF DUP2 GT ISZERO PUSH2 0xDC9 JUMPI PUSH2 0xDC8 PUSH2 0xA8D JUMP JUMPDEST JUMPDEST DUP1 DUP7 ADD PUSH2 0xDD6 DUP10 DUP3 PUSH2 0xB94 JUMP JUMPDEST DUP6 MSTORE PUSH1 0x20 DUP6 ADD SWAP5 POP POP POP PUSH1 0x20 DUP2 ADD SWAP1 POP PUSH2 0xDA6 JUMP JUMPDEST POP POP POP SWAP4 SWAP3 POP POP POP JUMP JUMPDEST PUSH1 0x0 DUP3 PUSH1 0x1F DUP4 ADD SLT PUSH2 0xE0A JUMPI PUSH2 0xE09 PUSH2 0xA8D JUMP JUMPDEST JUMPDEST DUP2 CALLDATALOAD PUSH2 0xE1A DUP5 DUP3 PUSH1 0x20 DUP7 ADD PUSH2 0xD6E JUMP JUMPDEST SWAP2 POP POP SWAP3 SWAP2 POP POP JUMP JUMPDEST PUSH1 0x0 DUP1 PUSH1 0x40 DUP4 DUP6 SUB SLT ISZERO PUSH2 0xE3A JUMPI PUSH2 0xE39 PUSH2 0x8AA JUMP JUMPDEST JUMPDEST PUSH1 0x0 DUP4 ADD CALLDATALOAD PUSH8 0xFFFFFFFFFFFFFFFF DUP2 GT ISZERO PUSH2 0xE58 JUMPI PUSH2 0xE57 PUSH2 0x8AF JUMP JUMPDEST JUMPDEST PUSH2 0xE64 DUP6 DUP3 DUP7 ADD PUSH2 0xD14 JUMP JUMPDEST SWAP3 POP POP PUSH1 0x20 DUP4 ADD CALLDATALOAD PUSH8 0xFFFFFFFFFFFFFFFF DUP2 GT ISZERO PUSH2 0xE85 JUMPI PUSH2 0xE84 PUSH2 0x8AF JUMP JUMPDEST JUMPDEST PUSH2 0xE91 DUP6 DUP3 DUP7 ADD PUSH2 0xDF5 JUMP JUMPDEST SWAP2 POP POP SWAP3 POP SWAP3 SWAP1 POP JUMP JUMPDEST PUSH1 0x0 PUSH1 0x20 DUP3 DUP5 SUB SLT ISZERO PUSH2 0xEB1 JUMPI PUSH2 0xEB0 PUSH2 0x8AA JUMP JUMPDEST JUMPDEST PUSH1 0x0 DUP3 ADD CALLDATALOAD PUSH8 0xFFFFFFFFFFFFFFFF DUP2 GT ISZERO PUSH2 0xECF JUMPI PUSH2 0xECE PUSH2 0x8AF JUMP JUMPDEST JUMPDEST PUSH2 0xEDB DUP5 DUP3 DUP6 ADD PUSH2 0xD14 JUMP JUMPDEST SWAP2 POP POP SWAP3 SWAP2 POP POP JUMP JUMPDEST PUSH1 0x0 DUP2 MLOAD SWAP1 POP SWAP2 SWAP1 POP JUMP JUMPDEST PUSH1 0x0 DUP3 DUP3 MSTORE PUSH1 0x20 DUP3 ADD SWAP1 POP SWAP3 SWAP2 POP POP JUMP JUMPDEST PUSH1 0x0 DUP2 SWAP1 POP PUSH1 0x20 DUP3 ADD SWAP1 POP SWAP2 SWAP1 POP JUMP JUMPDEST PUSH1 0x0 DUP3 DUP3 MSTORE PUSH1 0x20 DUP3 ADD SWAP1 POP SWAP3 SWAP2 POP POP JUMP JUMPDEST PUSH1 0x0 PUSH2 0xF2C DUP3 PUSH2 0x9D2 JUMP JUMPDEST PUSH2 0xF36 DUP2 DUP6 PUSH2 0xF10 JUMP JUMPDEST SWAP4 POP PUSH2 0xF46 DUP2 DUP6 PUSH1 0x20 DUP7 ADD PUSH2 0x9EE JUMP JUMPDEST PUSH2 0xF4F DUP2 PUSH2 0xA21 JUMP JUMPDEST DUP5 ADD SWAP2 POP POP SWAP3 SWAP2 POP POP JUMP JUMPDEST PUSH1 0x0 PUSH2 0xF66 DUP4 DUP4 PUSH2 0xF21 JUMP JUMPDEST SWAP1 POP SWAP3 SWAP2 POP POP JUMP JUMPDEST PUSH1 0x0 PUSH1 0x20 DUP3 ADD SWAP1 POP SWAP2 SWAP1 POP JUMP JUMPDEST PUSH1 0x0 PUSH2 0xF86 DUP3 PUSH2 0xEE4 JUMP JUMPDEST PUSH2 0xF90 DUP2 DUP6 PUSH2 0xEEF JUMP JUMPDEST SWAP4 POP DUP4 PUSH1 0x20 DUP3 MUL DUP6 ADD PUSH2 0xFA2 DUP6 PUSH2 0xF00 JUMP JUMPDEST DUP1 PUSH1 0x0 JUMPDEST DUP6 DUP2 LT ISZERO PUSH2 0xFDE JUMPI DUP5 DUP5 SUB DUP10 MSTORE DUP2 MLOAD PUSH2 0xFBF DUP6 DUP3 PUSH2 0xF5A JUMP JUMPDEST SWAP5 POP PUSH2 0xFCA DUP4 PUSH2 0xF6E JUMP JUMPDEST SWAP3 POP PUSH1 0x20 DUP11 ADD SWAP10 POP POP PUSH1 0x1 DUP2 ADD SWAP1 POP PUSH2 0xFA6 JUMP JUMPDEST POP DUP3 SWAP8 POP DUP8 SWAP6 POP POP POP POP POP POP SWAP3 SWAP2 POP POP JUMP JUMPDEST PUSH1 0x0 PUSH1 0x20 DUP3 ADD SWAP1 POP DUP2 DUP2 SUB PUSH1 0x0 DUP4 ADD MSTORE PUSH2 0x100A DUP2 DUP5 PUSH2 0xF7B JUMP JUMPDEST SWAP1 POP SWAP3 SWAP2 POP POP JUMP JUMPDEST PUSH2 0x101B DUP2 PUSH2 0xC3E JUMP JUMPDEST DUP2 EQ PUSH2 0x1026 JUMPI PUSH1 0x0 DUP1 REVERT JUMPDEST POP JUMP JUMPDEST PUSH1 0x0 DUP2 CALLDATALOAD SWAP1 POP PUSH2 0x1038 DUP2 PUSH2 0x1012 JUMP JUMPDEST SWAP3 SWAP2 POP POP JUMP JUMPDEST PUSH1 0x0 PUSH1 0x20 DUP3 DUP5 SUB SLT ISZERO PUSH2 0x1054 JUMPI PUSH2 0x1053 PUSH2 0x8AA JUMP JUMPDEST JUMPDEST PUSH1 0x0 PUSH2 0x1062 DUP5 DUP3 DUP6 ADD PUSH2 0x1029 JUMP JUMPDEST SWAP2 POP POP SWAP3 SWAP2 POP POP JUMP JUMPDEST PUSH32 0x4E487B7100000000000000000000000000000000000000000000000000000000 PUSH1 0x0 MSTORE PUSH1 0x32 PUSH1 0x4 MSTORE PUSH1 0x24 PUSH1 0x0 REVERT JUMPDEST PUSH32 0x4E487B7100000000000000000000000000000000000000000000000000000000 PUSH1 0x0 MSTORE PUSH1 0x22 PUSH1 0x4 MSTORE PUSH1 0x24 PUSH1 0x0 REVERT JUMPDEST PUSH1 0x0 PUSH1 0x2 DUP3 DIV SWAP1 POP PUSH1 0x1 DUP3 AND DUP1 PUSH2 0x10E1 JUMPI PUSH1 0x7F DUP3 AND SWAP2 POP JUMPDEST PUSH1 0x20 DUP3 LT DUP2 EQ ISZERO PUSH2 0x10F5 JUMPI PUSH2 0x10F4 PUSH2 0x109A JUMP JUMPDEST JUMPDEST POP SWAP2 SWAP1 POP JUMP INVALID LOG2 PUSH5 0x6970667358 0x22 SLT KECCAK256 SWAP16 ORIGIN 0x4F PUSH28 0xE711CE5199F4F8D2498457982296FE956D4DB39F2262BD1F7AD97F00 PUSH5 0x736F6C6343 STOP ADDMOD 0xC STOP CALLER "},"methodIdentifiers":{"getData(bytes32)":"54f6127f","getDataBatch(bytes32[])":"dedff9c6","owner()":"8da5cb5b","renounceOwnership()":"715018a6","setData(bytes32,bytes)":"7f23690c","setDataBatch(bytes32[],bytes[])":"97902421","supportsInterface(bytes4)":"01ffc9a7","transferOwnership(address)":"f2fde38b"}}}}}