{
  "_format": "hh-sol-artifact-1",
  "contractName": "ERC725Y",
  "sourceName": "@erc725/smart-contracts/contracts/ERC725Y.sol",
  "abi": [
    {
      "inputs": [
        {
          "internalType": "address",
          "name": "initialOwner",
          "type": "address"
        }
      ],
      "stateMutability": "payable",
      "type": "constructor"
    },
    {
      "inputs": [],
      "name": "ERC725Y_DataKeysValuesEmptyArray",
      "type": "error"
    },
    {
      "inputs": [],
      "name": "ERC725Y_DataKeysValuesLengthMismatch",
      "type": "error"
    },
    {
      "inputs": [],
      "name": "ERC725Y_MsgValueDisallowed",
      "type": "error"
    },
    {
      "inputs": [
        {
          "internalType": "address",
          "name": "callerAddress",
          "type": "address"
        }
      ],
      "name": "OwnableCallerNotTheOwner",
      "type": "error"
    },
    {
      "inputs": [],
      "name": "OwnableCannotSetZeroAddressAsOwner",
      "type": "error"
    },
    {
      "anonymous": false,
      "inputs": [
        {
          "indexed": true,
          "internalType": "bytes32",
          "name": "dataKey",
          "type": "bytes32"
        },
        {
          "indexed": false,
          "internalType": "bytes",
          "name": "dataValue",
          "type": "bytes"
        }
      ],
      "name": "DataChanged",
      "type": "event"
    },
    {
      "anonymous": false,
      "inputs": [
        {
          "indexed": true,
          "internalType": "address",
          "name": "previousOwner",
          "type": "address"
        },
        {
          "indexed": true,
          "internalType": "address",
          "name": "newOwner",
          "type": "address"
        }
      ],
      "name": "OwnershipTransferred",
      "type": "event"
    },
    {
      "inputs": [
        {
          "internalType": "bytes32",
          "name": "dataKey",
          "type": "bytes32"
        }
      ],
      "name": "getData",
      "outputs": [
        {
          "internalType": "bytes",
          "name": "dataValue",
          "type": "bytes"
        }
      ],
      "stateMutability": "view",
      "type": "function"
    },
    {
      "inputs": [
        {
          "internalType": "bytes32[]",
          "name": "dataKeys",
          "type": "bytes32[]"
        }
      ],
      "name": "getDataBatch",
      "outputs": [
        {
          "internalType": "bytes[]",
          "name": "dataValues",
          "type": "bytes[]"
        }
      ],
      "stateMutability": "view",
      "type": "function"
    },
    {
      "inputs": [],
      "name": "owner",
      "outputs": [
        {
          "internalType": "address",
          "name": "",
          "type": "address"
        }
      ],
      "stateMutability": "view",
      "type": "function"
    },
    {
      "inputs": [],
      "name": "renounceOwnership",
      "outputs": [],
      "stateMutability": "nonpayable",
      "type": "function"
    },
    {
      "inputs": [
        {
          "internalType": "bytes32",
          "name": "dataKey",
          "type": "bytes32"
        },
        {
          "internalType": "bytes",
          "name": "dataValue",
          "type": "bytes"
        }
      ],
      "name": "setData",
      "outputs": [],
      "stateMutability": "payable",
      "type": "function"
    },
    {
      "inputs": [
        {
          "internalType": "bytes32[]",
          "name": "dataKeys",
          "type": "bytes32[]"
        },
        {
          "internalType": "bytes[]",
          "name": "dataValues",
          "type": "bytes[]"
        }
      ],
      "name": "setDataBatch",
      "outputs": [],
      "stateMutability": "payable",
      "type": "function"
    },
    {
      "inputs": [
        {
          "internalType": "bytes4",
          "name": "interfaceId",
          "type": "bytes4"
        }
      ],
      "name": "supportsInterface",
      "outputs": [
        {
          "internalType": "bool",
          "name": "",
          "type": "bool"
        }
      ],
      "stateMutability": "view",
      "type": "function"
    },
    {
      "inputs": [
        {
          "internalType": "address",
          "name": "newOwner",
          "type": "address"
        }
      ],
      "name": "transferOwnership",
      "outputs": [],
      "stateMutability": "nonpayable",
      "type": "function"
    }
  ],
  "bytecode": "0x6080604052604051610b6a380380610b6a833981016040819052610022916100cf565b6001600160a01b038116610049576040516306b620db60e21b815260040160405180910390fd5b61005c8161006260201b6103c21760201c565b506100ff565b6000546001600160a01b038281169116146100cc57600080546040516001600160a01b03808516939216917f8be0079c531659141344cd1fd0a4f28419497f9722a3daafe3b4186f6b6457e091a3600080546001600160a01b0319166001600160a01b0383161790555b50565b6000602082840312156100e157600080fd5b81516001600160a01b03811681146100f857600080fd5b9392505050565b610a5c8061010e6000396000f3fe60806040526004361061007b5760003560e01c80638da5cb5b1161004e5780638da5cb5b1461010c5780639790242114610134578063dedff9c614610147578063f2fde38b1461017457600080fd5b806301ffc9a71461008057806354f6127f146100b5578063715018a6146100e25780637f23690c146100f9575b600080fd5b34801561008c57600080fd5b506100a061009b366004610607565b610194565b60405190151581526020015b60405180910390f35b3480156100c157600080fd5b506100d56100d0366004610638565b6101cb565b6040516100ac919061069e565b3480156100ee57600080fd5b506100f76101d6565b005b6100f7610107366004610768565b6101ea565b34801561011857600080fd5b506000546040516001600160a01b0390911681526020016100ac565b6100f761014236600461083e565b61021f565b34801561015357600080fd5b50610167610162366004610913565b6102dc565b6040516100ac9190610950565b34801561018057600080fd5b506100f761018f3660046109b2565b610387565b60006001600160e01b031982166318a6a9a560e21b14806101c557506301ffc9a760e01b6001600160e01b03198316145b92915050565b60606101c582610430565b6101de6104d2565b6101e860006103c2565b565b6101f26104d2565b34156102115760405163f36ba73760e01b815260040160405180910390fd5b61021b8282610512565b5050565b6102276104d2565b34156102465760405163f36ba73760e01b815260040160405180910390fd5b805182511461026857604051633bcc897960e01b815260040160405180910390fd5b8151610287576040516397da5f9560e01b815260040160405180910390fd5b60005b82518110156102d7576102cf8382815181106102a8576102a86109db565b60200260200101518383815181106102c2576102c26109db565b6020026020010151610512565b60010161028a565b505050565b6060815167ffffffffffffffff8111156102f8576102f86106b1565b60405190808252806020026020018201604052801561032b57816020015b60608152602001906001900390816103165790505b50905060005b82518110156103815761035c83828151811061034f5761034f6109db565b6020026020010151610430565b82828151811061036e5761036e6109db565b6020908102919091010152600101610331565b50919050565b61038f6104d2565b6001600160a01b0381166103b6576040516306b620db60e21b815260040160405180910390fd5b6103bf816103c2565b50565b6000546001600160a01b038281169116146103bf57600080546040516001600160a01b03808516939216917f8be0079c531659141344cd1fd0a4f28419497f9722a3daafe3b4186f6b6457e091a3600080546001600160a01b0383166001600160a01b031990911617905550565b600081815260016020526040902080546060919061044d906109f1565b80601f0160208091040260200160405190810160405280929190818152602001828054610479906109f1565b80156104c65780601f1061049b576101008083540402835291602001916104c6565b820191906000526020600020905b8154815290600101906020018083116104a957829003601f168201915b50505050509050919050565b336104e56000546001600160a01b031690565b6001600160a01b0316146101e85760405163bf1169c560e01b815233600482015260240160405180910390fd5b600082815260016020908152604090912082516105319284019061056e565b50817fece574603820d07bc9b91f2a932baadf4628aabcb8afba49776529c14a6104b282604051610562919061069e565b60405180910390a25050565b82805461057a906109f1565b90600052602060002090601f01602090048101928261059c57600085556105e2565b82601f106105b557805160ff19168380011785556105e2565b828001600101855582156105e2579182015b828111156105e25782518255916020019190600101906105c7565b506105ee9291506105f2565b5090565b5b808211156105ee57600081556001016105f3565b60006020828403121561061957600080fd5b81356001600160e01b03198116811461063157600080fd5b9392505050565b60006020828403121561064a57600080fd5b5035919050565b6000815180845260005b818110156106775760208185018101518683018201520161065b565b81811115610689576000602083870101525b50601f01601f19169290920160200192915050565b6020815260006106316020830184610651565b634e487b7160e01b600052604160045260246000fd5b604051601f8201601f1916810167ffffffffffffffff811182821017156106f0576106f06106b1565b604052919050565b600082601f83011261070957600080fd5b813567ffffffffffffffff811115610723576107236106b1565b610736601f8201601f19166020016106c7565b81815284602083860101111561074b57600080fd5b816020850160208301376000918101602001919091529392505050565b6000806040838503121561077b57600080fd5b82359150602083013567ffffffffffffffff81111561079957600080fd5b6107a5858286016106f8565b9150509250929050565b600067ffffffffffffffff8211156107c9576107c96106b1565b5060051b60200190565b600082601f8301126107e457600080fd5b813560206107f96107f4836107af565b6106c7565b82815260059290921b8401810191818101908684111561081857600080fd5b8286015b84811015610833578035835291830191830161081c565b509695505050505050565b6000806040838503121561085157600080fd5b823567ffffffffffffffff8082111561086957600080fd5b610875868387016107d3565b935060209150818501358181111561088c57600080fd5b8501601f8101871361089d57600080fd5b80356108ab6107f4826107af565b81815260059190911b820184019084810190898311156108ca57600080fd5b8584015b83811015610902578035868111156108e65760008081fd5b6108f48c89838901016106f8565b8452509186019186016108ce565b508096505050505050509250929050565b60006020828403121561092557600080fd5b813567ffffffffffffffff81111561093c57600080fd5b610948848285016107d3565b949350505050565b6000602080830181845280855180835260408601915060408160051b870101925083870160005b828110156109a557603f19888603018452610993858351610651565b94509285019290850190600101610977565b5092979650505050505050565b6000602082840312156109c457600080fd5b81356001600160a01b038116811461063157600080fd5b634e487b7160e01b600052603260045260246000fd5b600181811c90821680610a0557607f821691505b6020821081141561038157634e487b7160e01b600052602260045260246000fdfea2646970667358221220b7a5cc8b79a642d127573905431aca0cf72abf32df0444d85c01172acc5d1fa664736f6c634300080c0033",
  "linkReferences": {},
  "deployedLinkReferences": {}
}