{
  "_format": "hh-sol-artifact-1",
  "contractName": "ERC725Y",
  "sourceName": "@erc725/smart-contracts/contracts/ERC725Y.sol",
  "abi": [
    {
      "inputs": [
        {
          "internalType": "address",
          "name": "initialOwner",
          "type": "address"
        }
      ],
      "stateMutability": "payable",
      "type": "constructor"
    },
    {
      "inputs": [],
      "name": "ERC725Y_DataKeysValuesEmptyArray",
      "type": "error"
    },
    {
      "inputs": [],
      "name": "ERC725Y_DataKeysValuesLengthMismatch",
      "type": "error"
    },
    {
      "inputs": [],
      "name": "ERC725Y_MsgValueDisallowed",
      "type": "error"
    },
    {
      "inputs": [
        {
          "internalType": "address",
          "name": "callerAddress",
          "type": "address"
        }
      ],
      "name": "OwnableCallerNotTheOwner",
      "type": "error"
    },
    {
      "inputs": [],
      "name": "OwnableCannotSetZeroAddressAsOwner",
      "type": "error"
    },
    {
      "anonymous": false,
      "inputs": [
        {
          "indexed": true,
          "internalType": "bytes32",
          "name": "dataKey",
          "type": "bytes32"
        },
        {
          "indexed": false,
          "internalType": "bytes",
          "name": "dataValue",
          "type": "bytes"
        }
      ],
      "name": "DataChanged",
      "type": "event"
    },
    {
      "anonymous": false,
      "inputs": [
        {
          "indexed": true,
          "internalType": "address",
          "name": "previousOwner",
          "type": "address"
        },
        {
          "indexed": true,
          "internalType": "address",
          "name": "newOwner",
          "type": "address"
        }
      ],
      "name": "OwnershipTransferred",
      "type": "event"
    },
    {
      "inputs": [
        {
          "internalType": "bytes32",
          "name": "dataKey",
          "type": "bytes32"
        }
      ],
      "name": "getData",
      "outputs": [
        {
          "internalType": "bytes",
          "name": "dataValue",
          "type": "bytes"
        }
      ],
      "stateMutability": "view",
      "type": "function"
    },
    {
      "inputs": [
        {
          "internalType": "bytes32[]",
          "name": "dataKeys",
          "type": "bytes32[]"
        }
      ],
      "name": "getDataBatch",
      "outputs": [
        {
          "internalType": "bytes[]",
          "name": "dataValues",
          "type": "bytes[]"
        }
      ],
      "stateMutability": "view",
      "type": "function"
    },
    {
      "inputs": [],
      "name": "owner",
      "outputs": [
        {
          "internalType": "address",
          "name": "",
          "type": "address"
        }
      ],
      "stateMutability": "view",
      "type": "function"
    },
    {
      "inputs": [],
      "name": "renounceOwnership",
      "outputs": [],
      "stateMutability": "nonpayable",
      "type": "function"
    },
    {
      "inputs": [
        {
          "internalType": "bytes32",
          "name": "dataKey",
          "type": "bytes32"
        },
        {
          "internalType": "bytes",
          "name": "dataValue",
          "type": "bytes"
        }
      ],
      "name": "setData",
      "outputs": [],
      "stateMutability": "payable",
      "type": "function"
    },
    {
      "inputs": [
        {
          "internalType": "bytes32[]",
          "name": "dataKeys",
          "type": "bytes32[]"
        },
        {
          "internalType": "bytes[]",
          "name": "dataValues",
          "type": "bytes[]"
        }
      ],
      "name": "setDataBatch",
      "outputs": [],
      "stateMutability": "payable",
      "type": "function"
    },
    {
      "inputs": [
        {
          "internalType": "bytes4",
          "name": "interfaceId",
          "type": "bytes4"
        }
      ],
      "name": "supportsInterface",
      "outputs": [
        {
          "internalType": "bool",
          "name": "",
          "type": "bool"
        }
      ],
      "stateMutability": "view",
      "type": "function"
    },
    {
      "inputs": [
        {
          "internalType": "address",
          "name": "newOwner",
          "type": "address"
        }
      ],
      "name": "transferOwnership",
      "outputs": [],
      "stateMutability": "nonpayable",
      "type": "function"
    }
  ],
  "bytecode": "0x6080604052604051620013b5380380620013b5833981810160405281019062000029919062000242565b600073ffffffffffffffffffffffffffffffffffffffff168173ffffffffffffffffffffffffffffffffffffffff16141562000091576040517f1ad8836c00000000000000000000000000000000000000000000000000000000815260040160405180910390fd5b620000a781620000ae60201b620005191760201c565b5062000274565b620000be620001af60201b60201c565b73ffffffffffffffffffffffffffffffffffffffff168173ffffffffffffffffffffffffffffffffffffffff1614620001ac578073ffffffffffffffffffffffffffffffffffffffff1660008054906101000a900473ffffffffffffffffffffffffffffffffffffffff1673ffffffffffffffffffffffffffffffffffffffff167f8be0079c531659141344cd1fd0a4f28419497f9722a3daafe3b4186f6b6457e060405160405180910390a3806000806101000a81548173ffffffffffffffffffffffffffffffffffffffff021916908373ffffffffffffffffffffffffffffffffffffffff1602179055505b50565b60008060009054906101000a900473ffffffffffffffffffffffffffffffffffffffff16905090565b600080fd5b600073ffffffffffffffffffffffffffffffffffffffff82169050919050565b60006200020a82620001dd565b9050919050565b6200021c81620001fd565b81146200022857600080fd5b50565b6000815190506200023c8162000211565b92915050565b6000602082840312156200025b576200025a620001d8565b5b60006200026b848285016200022b565b91505092915050565b61113180620002846000396000f3fe60806040526004361061007b5760003560e01c80638da5cb5b1161004e5780638da5cb5b1461012d5780639790242114610158578063dedff9c614610174578063f2fde38b146101b15761007b565b806301ffc9a71461008057806354f6127f146100bd578063715018a6146100fa5780637f23690c14610111575b600080fd5b34801561008c57600080fd5b506100a760048036038101906100a2919061090c565b6101da565b6040516100b49190610954565b60405180910390f35b3480156100c957600080fd5b506100e460048036038101906100df91906109a5565b61023b565b6040516100f19190610a6b565b60405180910390f35b34801561010657600080fd5b5061010f61024d565b005b61012b60048036038101906101269190610bc2565b610261565b005b34801561013957600080fd5b506101426102b1565b60405161014f9190610c5f565b60405180910390f35b610172600480360381019061016d9190610e23565b6102da565b005b34801561018057600080fd5b5061019b60048036038101906101969190610e9b565b6103ed565b6040516101a89190610ff0565b60405180910390f35b3480156101bd57600080fd5b506101d860048036038101906101d3919061103e565b61049e565b005b600063629aa69460e01b7bffffffffffffffffffffffffffffffffffffffffffffffffffffffff1916827bffffffffffffffffffffffffffffffffffffffffffffffffffffffff19161480610234575061023382610611565b5b9050919050565b60606102468261067b565b9050919050565b610255610720565b61025f6000610519565b565b610269610720565b600034146102a3576040517ff36ba73700000000000000000000000000000000000000000000000000000000815260040160405180910390fd5b6102ad8282610799565b5050565b60008060009054906101000a900473ffffffffffffffffffffffffffffffffffffffff16905090565b6102e2610720565b6000341461031c576040517ff36ba73700000000000000000000000000000000000000000000000000000000815260040160405180910390fd5b8051825114610357576040517f3bcc897900000000000000000000000000000000000000000000000000000000815260040160405180910390fd5b600082511415610393576040517f97da5f9500000000000000000000000000000000000000000000000000000000815260040160405180910390fd5b60005b82518110156103e8576103dd8382815181106103b5576103b461106b565b5b60200260200101518383815181106103d0576103cf61106b565b5b6020026020010151610799565b806001019050610396565b505050565b6060815167ffffffffffffffff81111561040a57610409610a97565b5b60405190808252806020026020018201604052801561043d57816020015b60608152602001906001900390816104285790505b50905060005b82518110156104985761046f8382815181106104625761046161106b565b5b602002602001015161067b565b8282815181106104825761048161106b565b5b6020026020010181905250806001019050610443565b50919050565b6104a6610720565b600073ffffffffffffffffffffffffffffffffffffffff168173ffffffffffffffffffffffffffffffffffffffff16141561050d576040517f1ad8836c00000000000000000000000000000000000000000000000000000000815260040160405180910390fd5b61051681610519565b50565b6105216102b1565b73ffffffffffffffffffffffffffffffffffffffff168173ffffffffffffffffffffffffffffffffffffffff161461060e578073ffffffffffffffffffffffffffffffffffffffff1660008054906101000a900473ffffffffffffffffffffffffffffffffffffffff1673ffffffffffffffffffffffffffffffffffffffff167f8be0079c531659141344cd1fd0a4f28419497f9722a3daafe3b4186f6b6457e060405160405180910390a3806000806101000a81548173ffffffffffffffffffffffffffffffffffffffff021916908373ffffffffffffffffffffffffffffffffffffffff1602179055505b50565b60007f01ffc9a7000000000000000000000000000000000000000000000000000000007bffffffffffffffffffffffffffffffffffffffffffffffffffffffff1916827bffffffffffffffffffffffffffffffffffffffffffffffffffffffff1916149050919050565b606060016000838152602001908152602001600020805461069b906110c9565b80601f01602080910402602001604051908101604052809291908181526020018280546106c7906110c9565b80156107145780601f106106e957610100808354040283529160200191610714565b820191906000526020600020905b8154815290600101906020018083116106f757829003601f168201915b50505050509050919050565b3373ffffffffffffffffffffffffffffffffffffffff1661073f6102b1565b73ffffffffffffffffffffffffffffffffffffffff161461079757336040517fbf1169c500000000000000000000000000000000000000000000000000000000815260040161078e9190610c5f565b60405180910390fd5b565b806001600084815260200190815260200160002090805190602001906107c09291906107fd565b50817fece574603820d07bc9b91f2a932baadf4628aabcb8afba49776529c14a6104b2826040516107f19190610a6b565b60405180910390a25050565b828054610809906110c9565b90600052602060002090601f01602090048101928261082b5760008555610872565b82601f1061084457805160ff1916838001178555610872565b82800160010185558215610872579182015b82811115610871578251825591602001919060010190610856565b5b50905061087f9190610883565b5090565b5b8082111561089c576000816000905550600101610884565b5090565b6000604051905090565b600080fd5b600080fd5b60007fffffffff0000000000000000000000000000000000000000000000000000000082169050919050565b6108e9816108b4565b81146108f457600080fd5b50565b600081359050610906816108e0565b92915050565b600060208284031215610922576109216108aa565b5b6000610930848285016108f7565b91505092915050565b60008115159050919050565b61094e81610939565b82525050565b60006020820190506109696000830184610945565b92915050565b6000819050919050565b6109828161096f565b811461098d57600080fd5b50565b60008135905061099f81610979565b92915050565b6000602082840312156109bb576109ba6108aa565b5b60006109c984828501610990565b91505092915050565b600081519050919050565b600082825260208201905092915050565b60005b83811015610a0c5780820151818401526020810190506109f1565b83811115610a1b576000848401525b50505050565b6000601f19601f8301169050919050565b6000610a3d826109d2565b610a4781856109dd565b9350610a578185602086016109ee565b610a6081610a21565b840191505092915050565b60006020820190508181036000830152610a858184610a32565b905092915050565b600080fd5b600080fd5b7f4e487b7100000000000000000000000000000000000000000000000000000000600052604160045260246000fd5b610acf82610a21565b810181811067ffffffffffffffff82111715610aee57610aed610a97565b5b80604052505050565b6000610b016108a0565b9050610b0d8282610ac6565b919050565b600067ffffffffffffffff821115610b2d57610b2c610a97565b5b610b3682610a21565b9050602081019050919050565b82818337600083830152505050565b6000610b65610b6084610b12565b610af7565b905082815260208101848484011115610b8157610b80610a92565b5b610b8c848285610b43565b509392505050565b600082601f830112610ba957610ba8610a8d565b5b8135610bb9848260208601610b52565b91505092915050565b60008060408385031215610bd957610bd86108aa565b5b6000610be785828601610990565b925050602083013567ffffffffffffffff811115610c0857610c076108af565b5b610c1485828601610b94565b9150509250929050565b600073ffffffffffffffffffffffffffffffffffffffff82169050919050565b6000610c4982610c1e565b9050919050565b610c5981610c3e565b82525050565b6000602082019050610c746000830184610c50565b92915050565b600067ffffffffffffffff821115610c9557610c94610a97565b5b602082029050602081019050919050565b600080fd5b6000610cbe610cb984610c7a565b610af7565b90508083825260208201905060208402830185811115610ce157610ce0610ca6565b5b835b81811015610d0a5780610cf68882610990565b845260208401935050602081019050610ce3565b5050509392505050565b600082601f830112610d2957610d28610a8d565b5b8135610d39848260208601610cab565b91505092915050565b600067ffffffffffffffff821115610d5d57610d5c610a97565b5b602082029050602081019050919050565b6000610d81610d7c84610d42565b610af7565b90508083825260208201905060208402830185811115610da457610da3610ca6565b5b835b81811015610deb57803567ffffffffffffffff811115610dc957610dc8610a8d565b5b808601610dd68982610b94565b85526020850194505050602081019050610da6565b5050509392505050565b600082601f830112610e0a57610e09610a8d565b5b8135610e1a848260208601610d6e565b91505092915050565b60008060408385031215610e3a57610e396108aa565b5b600083013567ffffffffffffffff811115610e5857610e576108af565b5b610e6485828601610d14565b925050602083013567ffffffffffffffff811115610e8557610e846108af565b5b610e9185828601610df5565b9150509250929050565b600060208284031215610eb157610eb06108aa565b5b600082013567ffffffffffffffff811115610ecf57610ece6108af565b5b610edb84828501610d14565b91505092915050565b600081519050919050565b600082825260208201905092915050565b6000819050602082019050919050565b600082825260208201905092915050565b6000610f2c826109d2565b610f368185610f10565b9350610f468185602086016109ee565b610f4f81610a21565b840191505092915050565b6000610f668383610f21565b905092915050565b6000602082019050919050565b6000610f8682610ee4565b610f908185610eef565b935083602082028501610fa285610f00565b8060005b85811015610fde5784840389528151610fbf8582610f5a565b9450610fca83610f6e565b925060208a01995050600181019050610fa6565b50829750879550505050505092915050565b6000602082019050818103600083015261100a8184610f7b565b905092915050565b61101b81610c3e565b811461102657600080fd5b50565b60008135905061103881611012565b92915050565b600060208284031215611054576110536108aa565b5b600061106284828501611029565b91505092915050565b7f4e487b7100000000000000000000000000000000000000000000000000000000600052603260045260246000fd5b7f4e487b7100000000000000000000000000000000000000000000000000000000600052602260045260246000fd5b600060028204905060018216806110e157607f821691505b602082108114156110f5576110f461109a565b5b5091905056fea26469706673582212209f324f7be711ce5199f4f8d2498457982296fe956d4db39f2262bd1f7ad97f0064736f6c634300080c0033",
  "linkReferences": {},
  "deployedLinkReferences": {}
}